{
  "address": "0x61B4a36de0706d9C289509ae318ED18972aB86A9",
  "abi": [
    {
      "inputs": [
        {
          "internalType": "address",
          "name": "priceFeed",
          "type": "address"
        }
      ],
      "stateMutability": "nonpayable",
      "type": "constructor"
    },
    {
      "inputs": [],
      "name": "FundMe__NotEnoughEth",
      "type": "error"
    },
    {
      "inputs": [],
      "name": "FundMe__OnlyOwner",
      "type": "error"
    },
    {
      "inputs": [],
      "name": "FundMe__WithdrawFailed",
      "type": "error"
    },
    {
      "inputs": [],
      "name": "fund",
      "outputs": [],
      "stateMutability": "payable",
      "type": "function"
    },
    {
      "inputs": [
        {
          "internalType": "address",
          "name": "index",
          "type": "address"
        }
      ],
      "name": "getAddressToFundersArray",
      "outputs": [
        {
          "internalType": "uint256",
          "name": "",
          "type": "uint256"
        }
      ],
      "stateMutability": "view",
      "type": "function"
    },
    {
      "inputs": [
        {
          "internalType": "uint256",
          "name": "index",
          "type": "uint256"
        }
      ],
      "name": "getFunder",
      "outputs": [
        {
          "internalType": "address",
          "name": "",
          "type": "address"
        }
      ],
      "stateMutability": "view",
      "type": "function"
    },
    {
      "inputs": [],
      "name": "getMininumUsd",
      "outputs": [
        {
          "internalType": "uint256",
          "name": "",
          "type": "uint256"
        }
      ],
      "stateMutability": "pure",
      "type": "function"
    },
    {
      "inputs": [],
      "name": "getOnlyOwner",
      "outputs": [
        {
          "internalType": "address",
          "name": "",
          "type": "address"
        }
      ],
      "stateMutability": "view",
      "type": "function"
    },
    {
      "inputs": [],
      "name": "getPriceFeed",
      "outputs": [
        {
          "internalType": "contract AggregatorV3Interface",
          "name": "",
          "type": "address"
        }
      ],
      "stateMutability": "view",
      "type": "function"
    },
    {
      "inputs": [],
      "name": "withdraw",
      "outputs": [],
      "stateMutability": "nonpayable",
      "type": "function"
    }
  ],
  "transactionHash": "0xf17d9db7f9acd0eff6dbdab806e47a79ec26df4f3b515608d39719b6500a8dd8",
  "args": [
    "0xD4a33860578De61DBAbDc8BFdb98FD742fA7028e"
  ],
  "numDeployments": 1,
  "solcInputHash": "bbf082e6970ce89a3a12da4f862a58dd",
  "bytecode": "0x60c060405234801561001057600080fd5b50604051610eef380380610eef833981810160405281019061003291906100bb565b8073ffffffffffffffffffffffffffffffffffffffff1660808173ffffffffffffffffffffffffffffffffffffffff1660601b815250503373ffffffffffffffffffffffffffffffffffffffff1660a08173ffffffffffffffffffffffffffffffffffffffff1660601b8152505050610136565b6000815190506100b58161011f565b92915050565b6000602082840312156100d1576100d061011a565b5b60006100df848285016100a6565b91505092915050565b60006100f3826100fa565b9050919050565b600073ffffffffffffffffffffffffffffffffffffffff82169050919050565b600080fd5b610128816100e8565b811461013357600080fd5b50565b60805160601c60a05160601c610d8061016f60003960008181610195015261028e0152600081816104a101526104cb0152610d806000f3fe6080604052600436106100705760003560e01c80639e87a5cd1161004e5780639e87a5cd146100f4578063b60d42881461011f578063d7b4750c14610129578063e46efed71461016657610070565b806323d1190f146100755780632bbc82a5146100a05780633ccfd60b146100dd575b600080fd5b34801561008157600080fd5b5061008a610191565b6040516100979190610951565b60405180910390f35b3480156100ac57600080fd5b506100c760048036038101906100c29190610817565b6101b9565b6040516100d49190610987565b60405180910390f35b3480156100e957600080fd5b506100f2610202565b005b34801561010057600080fd5b5061010961049d565b604051610116919061096c565b60405180910390f35b6101276104c5565b005b34801561013557600080fd5b50610150600480360381019061014b9190610844565b6105db565b60405161015d9190610951565b60405180910390f35b34801561017257600080fd5b5061017b610622565b6040516101889190610987565b60405180910390f35b60007f0000000000000000000000000000000000000000000000000000000000000000905090565b6000600160008373ffffffffffffffffffffffffffffffffffffffff1673ffffffffffffffffffffffffffffffffffffffff168152602001908152602001600020549050919050565b60008080548060200260200160405190810160405280929190818152602001828054801561028557602002820191906000526020600020905b8160009054906101000a900473ffffffffffffffffffffffffffffffffffffffff1673ffffffffffffffffffffffffffffffffffffffff168152602001906001019080831161023b575b505050505090507f000000000000000000000000000000000000000000000000000000000000000073ffffffffffffffffffffffffffffffffffffffff163373ffffffffffffffffffffffffffffffffffffffff1614610311576040517f0bced8bc00000000000000000000000000000000000000000000000000000000815260040160405180910390fd5b60005b815181101561039557600082828151811061033257610331610c88565b5b602002602001015190506000600160008373ffffffffffffffffffffffffffffffffffffffff1673ffffffffffffffffffffffffffffffffffffffff1681526020019081526020016000208190555050808061038d90610be1565b915050610314565b50600067ffffffffffffffff8111156103b1576103b0610cb7565b5b6040519080825280602002602001820160405280156103df5781602001602082028036833780820191505090505b50600090805190602001906103f5929190610707565b5060003373ffffffffffffffffffffffffffffffffffffffff164760405161041c9061093c565b60006040518083038185875af1925050503d8060008114610459576040519150601f19603f3d011682016040523d82523d6000602084013e61045e565b606091505b5050905080610499576040517ff02e6d3000000000000000000000000000000000000000000000000000000000815260040160405180910390fd5b5050565b60007f0000000000000000000000000000000000000000000000000000000000000000905090565b6104ef347f000000000000000000000000000000000000000000000000000000000000000061062b565b60028190555060326002541015610532576040517f5ed3980900000000000000000000000000000000000000000000000000000000815260040160405180910390fd5b6000339080600181540180825580915050600190039060005260206000200160009091909190916101000a81548173ffffffffffffffffffffffffffffffffffffffff021916908373ffffffffffffffffffffffffffffffffffffffff16021790555034600160003373ffffffffffffffffffffffffffffffffffffffff1673ffffffffffffffffffffffffffffffffffffffff16815260200190815260200160002081905550565b60008082815481106105f0576105ef610c88565b5b9060005260206000200160009054906101000a900473ffffffffffffffffffffffffffffffffffffffff169050919050565b60006032905090565b60008061063783610667565b90506000670de0b6b3a764000085836106509190610af5565b61065a91906109ad565b9050809250505092915050565b6000808273ffffffffffffffffffffffffffffffffffffffff1663feaf968c6040518163ffffffff1660e01b815260040160a06040518083038186803b1580156106b057600080fd5b505afa1580156106c4573d6000803e3d6000fd5b505050506040513d601f19601f820116820180604052508101906106e89190610871565b5050509150506402540be400816106ff91906109de565b915050919050565b828054828255906000526020600020908101928215610780579160200282015b8281111561077f5782518260006101000a81548173ffffffffffffffffffffffffffffffffffffffff021916908373ffffffffffffffffffffffffffffffffffffffff16021790555091602001919060010190610727565b5b50905061078d9190610791565b5090565b5b808211156107aa576000816000905550600101610792565b5090565b6000813590506107bd81610cee565b92915050565b6000815190506107d281610d05565b92915050565b6000813590506107e781610d1c565b92915050565b6000815190506107fc81610d1c565b92915050565b60008151905061081181610d33565b92915050565b60006020828403121561082d5761082c610ce6565b5b600061083b848285016107ae565b91505092915050565b60006020828403121561085a57610859610ce6565b5b6000610868848285016107d8565b91505092915050565b600080600080600060a0868803121561088d5761088c610ce6565b5b600061089b88828901610802565b95505060206108ac888289016107c3565b94505060406108bd888289016107ed565b93505060606108ce888289016107ed565b92505060806108df88828901610802565b9150509295509295909350565b6108f581610b4f565b82525050565b61090481610bab565b82525050565b60006109176000836109a2565b915061092282610ceb565b600082019050919050565b61093681610b8b565b82525050565b60006109478261090a565b9150819050919050565b600060208201905061096660008301846108ec565b92915050565b600060208201905061098160008301846108fb565b92915050565b600060208201905061099c600083018461092d565b92915050565b600081905092915050565b60006109b882610b8b565b91506109c383610b8b565b9250826109d3576109d2610c59565b5b828204905092915050565b60006109e982610b61565b91506109f483610b61565b9250827f7fffffffffffffffffffffffffffffffffffffffffffffffffffffffffffffff0482116000841360008413161615610a3357610a32610c2a565b5b817f80000000000000000000000000000000000000000000000000000000000000000583126000841260008413161615610a7057610a6f610c2a565b5b827f80000000000000000000000000000000000000000000000000000000000000000582126000841360008412161615610aad57610aac610c2a565b5b827f7fffffffffffffffffffffffffffffffffffffffffffffffffffffffffffffff0582126000841260008412161615610aea57610ae9610c2a565b5b828202905092915050565b6000610b0082610b8b565b9150610b0b83610b8b565b9250817fffffffffffffffffffffffffffffffffffffffffffffffffffffffffffffffff0483118215151615610b4457610b43610c2a565b5b828202905092915050565b6000610b5a82610b6b565b9050919050565b6000819050919050565b600073ffffffffffffffffffffffffffffffffffffffff82169050919050565b6000819050919050565b600069ffffffffffffffffffff82169050919050565b6000610bb682610bbd565b9050919050565b6000610bc882610bcf565b9050919050565b6000610bda82610b6b565b9050919050565b6000610bec82610b8b565b91507fffffffffffffffffffffffffffffffffffffffffffffffffffffffffffffffff821415610c1f57610c1e610c2a565b5b600182019050919050565b7f4e487b7100000000000000000000000000000000000000000000000000000000600052601160045260246000fd5b7f4e487b7100000000000000000000000000000000000000000000000000000000600052601260045260246000fd5b7f4e487b7100000000000000000000000000000000000000000000000000000000600052603260045260246000fd5b7f4e487b7100000000000000000000000000000000000000000000000000000000600052604160045260246000fd5b600080fd5b50565b610cf781610b4f565b8114610d0257600080fd5b50565b610d0e81610b61565b8114610d1957600080fd5b50565b610d2581610b8b565b8114610d3057600080fd5b50565b610d3c81610b95565b8114610d4757600080fd5b5056fea2646970667358221220f0edf2d8812d52c2a9e563c338bb4bf52981141d5b1cc3e133af6df0e507018464736f6c63430008070033",
  "devdoc": {
    "kind": "dev",
    "methods": {},
    "version": 1
  },
  "userdoc": {
    "kind": "user",
    "methods": {},
    "version": 1
  },
  "storageLayout": {
    "storage": [
      {
        "astId": 61,
        "contract": "contracts/FundMe.sol:FundMe",
        "label": "s_funders",
        "offset": 0,
        "slot": "0",
        "type": "t_array(t_address)dyn_storage"
      },
      {
        "astId": 65,
        "contract": "contracts/FundMe.sol:FundMe",
        "label": "addressToFundersArray",
        "offset": 0,
        "slot": "1",
        "type": "t_mapping(t_address,t_uint256)"
      },
      {
        "astId": 67,
        "contract": "contracts/FundMe.sol:FundMe",
        "label": "s_priceInUsd",
        "offset": 0,
        "slot": "2",
        "type": "t_uint256"
      }
    ],
    "types": {
      "t_address": {
        "encoding": "inplace",
        "label": "address",
        "numberOfBytes": "20"
      },
      "t_array(t_address)dyn_storage": {
        "base": "t_address",
        "encoding": "dynamic_array",
        "label": "address[]",
        "numberOfBytes": "32"
      },
      "t_mapping(t_address,t_uint256)": {
        "encoding": "mapping",
        "key": "t_address",
        "label": "mapping(address => uint256)",
        "numberOfBytes": "32",
        "value": "t_uint256"
      },
      "t_uint256": {
        "encoding": "inplace",
        "label": "uint256",
        "numberOfBytes": "32"
      }
    }
  }
}